:040000003BEF00F0E2
:100008004F82E1CF44F0E2CF45F0D9CF46F0DACFC6
:1000180047F0F3CF48F0F4CF49F0F6CF4AF0F7CFE6
:100028004BF0F8CF4CF0F5CF4DF0F2BC9DA603D0C5
:100038009EB633EC10F0F2BCA3A403D0A4B4D3EC66
:1000480006F04DC0F5FF4CC0F8FF4BC0F7FF4AC0A3
:10005800F6FF49C0F4FF48C0F3FF47C0DAFF46C0C7
:10006800D9FF45C0E2FF44C0E1FF4F921100CEEF37
:020078000FF087
:1008000000AC084C088008090809024300020100F6
:10081000C032090400000102020100052400100199
:100820000424020205240600010524010001070535
:10083000810308000209040100020A000000070504
:1008400002024000000705820240000034034D0010
:100850006900630072006F00630068006900700047
:10086000200054006500630068006E006F006C009B
:100870006F0067007900200049006E0063002E00C1
:100880001A03500072006F0064007500630074006A
:1008900020004E0061006D006500120100020200A0
:1008A0000008D8040A000001010200010403090441
:0108B0000047
:1008B20004013205D8A40ED030511F0B0009D8A470
:1008C20009D0128E030E3119D8A402D0010E01D024
:1008D200000E1F6E3251D8A4120030511F0B020AB3
:1008E200D8A4120034510F0B0009D8B412003451AD
:1008F2000F0B3C6E030E3C601200200E2218D8A48F
:100902001200128E34BF19D034510F0B3C6E3C5082
:10091200020D6A0EF324D96E000EF420DA6EDECFD9
:1009220040F0DDCF41F034510F0B3C6E3C50010DD5
:10093200780EF324D96E000E18D034510F0B3C6E92
:100942003C50020D090EF324D96E000EF420DA6E2B
:10095200DECF40F0DDCF41F034510F0B3C6E3C5006
:10096200010D7B0EF324D96E000EF420DA6EDF50F7
:100972003F6E3FB006D0FB0E4014406EFF0E411496
:1009820004D0040E4010406E4150416E34BF0AD074
:1009920034510F0B3C6E3C50020D6A0EF324D96E9B
:1009A200000E09D034510F0B3C6E3C50020D090E63
:1009B200F324D96E000EF420DA6E40C0DEFF41C08F
:1009C200DDFF030E3119D8A42DD040C0D9FF41C09C
:1009D200DAFFDFAE1AD034BF0AD034510F0B3C6EAF
:1009E2003C50010D780EF324D96E000E0AD004019A
:1009F20034510F0B3C6E3C50010D7B0EF324D96E2B
:100A0200000EF420DA6E0001DF8240C0D9FF41C03F
:100A1200DAFF000EDB8440C0D9FF41C0DAFF000ECE
:100A2200DB8E1200040E4018406E4150416E40C0F1
:100A3200D9FF41C0DAFFDFAE1BD040C0D9FF41C0B1
:100A4200DAFF7F0EDF1640C0D9FF41C0DAFF000E89
:100A5200DB8C000E356E050E346E40C036F041C0A0
:100A620037F0000E396E020E386EA0EC0FF006D091
:100A720040C0D9FF41C0DAFF000EDB8C040E4018E3
:100A8200406E4150416E3FB206D040C0D9FF41C0D6
:100A9200DAFFDFAE30D0040134BF0AD034510F0B7D
:100AA2003C6E3C50010D780EF324D96E000E0AD034
:100AB200040134510F0B3C6E3C50010D7B0EF324AC
:100AC200D96E000EF420DA6E0001DF9240C0D9FF29
:100AD20041C0DAFF3B0EDF16000E356E050E346E96
:100AE20040C036F041C037F0000E396E020E386E4B
:100AF200A0EC0FF006D040C0D9FF41C0DAFF3B0E98
:100B0200DF16040134510F0B3C6E3C50010D6A0E8E
:100B1200F3243D6E0F0EF4203E6E3DC0D9FF3EC061
:100B2200DAFFFE0EDF161200A394000E676E000EAF
:100B3200656E000E6A6E6B0E0001E56F0F0EE66FBA
:100B4200000EE86F000EE76F000EEA6F020EE96F0B
:100B52008AEC10F0160E626E9F0E666E7B0E646E4D
:100B6200000E0001ED6F0B0EED6501D00ED0ED51C0
:100B7200040D000EF324D96E040EF420DA6EDE6A40
:100B8200DE6ADE6ADD6AED2BEED7608C000E636EE4
:100B92006098609C6596000E126E000E046E000E48
:100BA200066E000E056E65B6F5D7010E00018E6F5A
:100BB200010E8D6F000E8C6F000E8B6F000E1E6E7D
:100BC200000EED6F020EED6501D02ED0ED51020D3B
:100BD200090EF324D96E000EF420DA6E000EDE6EDA
:100BE200000EDD6EED51020D6A0EF324D96E000E79
:100BF200F420DA6E000EDE6E000EDD6EED51010D98
:100C02007B0EF324D96E000EF420DA6E000EDF6E36
:100C1200ED51010D780EF324D96E000EF420DA6E38
:100C2200000EDF6EED2BCED7080E096E040E0A6E93
:100C3200160E6A6E040E0401036F300E026F080E68
:100C4200016F040E006F008F000E276E000E000170
:100C5200706F000E716F000E726F000E736F000ED8
:100C62008A6F000E226E1200A394000E676E000EB1
:100C7200656E000E6A6E6B0E286E0F0E296E000EE8
:100C82002B6E000E2A6E000E2D6E020E2C6ED1EC13
:100C920010F0160E626E9F0E666E7B0E646E000E74
:100CA200306E0B0E306401D00ED03050040D000EA9
:100CB200F324D96E040EF420DA6EDE6ADE6ADE6A8E
:100CC200DD6A302AEED7608C000E636E6098609CFD
:100CD2006596000E126E000E046E000E066E000E79
:100CE200056E65B6F5D7010E00018E6F010E8D6F90
:100CF200000E8C6F000E8B6F000E1E6E000E306E9B
:100D0200020E306401D02ED03050020D090EF324B1
:100D1200D96E000EF420DA6E000EDE6E000EDD6E6D
:100D22003050020D6A0EF324D96E000EF420DA6EF2
:100D3200000EDE6E000EDD6E3050010D7B0EF324D0
:100D4200D96E000EF420DA6E000EDF6E3050010D07
:100D5200780EF324D96E000EF420DA6E000EDF6EE8
:100D6200302ACED7080E096E040E0A6E160E6A6E6F
:100D7200040E0401036F300E026F080E016F040EA1
:100D8200006F008F000E276E000E0001706F000EC4
:100D9200716F000E726F000E736F000E8A6F000E7D
:100DA200226E12002204D8B460BA06D0000E656E1C
:100DB20064806488020E226E65B464A403D06594D4
:100DC20070EC10F060A202D0A494120065B064A08E
:100DD20006D035EC06F0A384040E226E659065B849
:100DE20064A802D0BAEC10F065AC1AD064AC0ED094
:100DF200000E356E730E346E000E366E000E376EB8
:100E0200000E396E010E386EA0EC0FF0659C0CECF2
:100E120011F01C50D8A41C061C50D8B42EEC0CF0B7
:100E220065BA64AA02D012EC10F065B264A20FD0C7
:100E32007F0E356E3468000E366E000E376E000E71
:100E4200396E010E386EA0EC0FF0000E676E040EC4
:100E5200226002D0A494120064A639D0000E436E20
:100E6200030E436401D033D065A631D061CF26F0A2
:100E72002630E832E8320F0B1D6E659626B407D095
:100E82001D50010D780EF324D96E000E06D01D50B0
:100E9200010D7B0EF324D96E000EF420DA6E0001F0
:100EA200DF701D50D8A403D0DAEC0DF00ED0000E86
:100EB200356E720E346E260E366E000E376E000ED2
:100EC200396E000E386EA0EC0FF0432AC9D7A494F5
:100ED2001200800E04013019D8A41200C00E126E46
:100EE20079D09A0E0F6E080E106E000E146E120E4E
:100EF200136E12003251D8A43DD03251020D070EAA
:100F0200F324F66E080EF420F76E0900F5CF0FF009
:100F12000A00F5CF10F0020E0F24286E000E1020EA
:100F2200296E28C0F6FF29C0F7FFF86A070EF7649A
:100F320003D00800F55005D0F6CFE1FFF7CFE2FF6E
:100F4200E750136E030E0F24286E000E1020296E38
:100F520028C0F6FF29C0F7FFF86A070EF76403D02E
:100F62000800F55005D0F6CFE1FFF7CFE2FFE750DA
:100F7200146E1200000E126E1200030E0401326192
:100F820023D03251020D010EF324F66E080EF42026
:100F9200F76E0900F5CF0FF00A00F5CF10F00FC081
:100FA200F6FF10C0F7FFF86A070EF76403D00800D7
:100FB200F55005D0F6CFE1FFF7CFE2FFE750286EFC
:100FC2002850136E146A1200000E126E1200000EE8
:100FD200126E120004013351010AD8B482D7030AF7
:100FE200D8B488D7010AD8B4C8D7F1D7A3940001DE
:100FF20086518711D8B408D086C0D9FF87C0DAFFDE
:10100200DFAE02D0A3841200030E2418D8A402D0AB
:10101200000E246E2450D8A402D0A3841200020E23
:101022002418D8A412D0010EE56F000EE66F000E50
:10103200E76F000EE86F020E08EC09F0E5C086F0DB
:10104200E6C087F0030E246E5AD02404D8A457D0E9
:10105200400E236404D0400E0001F16F02D023C081
:10106200F1F00001F15100082324236E000E7E6F7F
:10107200050E7F6FF1C0F0F09351D8B410D022D09A
:1010820081C0D9FF82C0DAFF7EC0E1FF7FC0E2FFEC
:10109200DFCFE7FF7E4B7F2B814B822BF007F05196
:1010A200D8B413D0EDD781C0D9FF82C0DAFF7EC099
:1010B200E1FF7FC0E2FFDFCFE7FF7E4B7F2B814B5B
:1010C200822BF007F051D8A4EED72350D8A408D031
:1010D200400EF119D8A402D0020E01D0030E246EE4
:1010E200010EE56F000EE66F050EE76FF1C0E8F046
:1010F200020E08EC09F0E5C086F0E6C087F0A38492
:10110200120020EE01F01750D9261850DA22DF50D3
:10111200296E2950055C000E0658D8A005C029F09A
:101122002950055E000E065A000E286E11D0285076
:10113200010D380EF324D96E040EF420DA6E01C0CC
:10114200E1FF02C0E2FFDFCFE7FF014A022A282ABD
:101152002950285CD8A0EBD705500610D8B432D05D
:1011620020EE01F01550D9261650DA22080EDF6E55
:1011720020EE02F01550D9261650DA22380EDE6E15
:10118200040EDD6E17C0D9FF18C0DAFFDFBC0DD028
:1011920015C0D9FF16C0DAFF480EDF6E15C0D9FFA1
:1011A20016C0DAFF000EDB8E120015C0D9FF16C082
:1011B200DAFF080EDF6E15C0D9FF16C0DAFF000E87
:1011C200DB8E120020EE01F01550D9261650DA22DD
:1011D200080EDF6E20EE02F01550D9261650DA22E4
:1011E200300EDE6E040EDD6E15C0D9FF16C0DAFFBA
:1011F200040EDF6E15C0D9FF16C0DAFF000EDB8EBB
:10120200049E1B50D8A412002EEC0CF01200000118
:10121200ED6F0001E551D8B407D0ED51020D090E72
:10122200F324D96E000E06D0ED51020D6A0EF3249E
:10123200D96E000EF420DA6EDECFEEF0DDCFEFF0E5
:10124200EE51EF11D8A405D0000EE56F000EE66F47
:10125200120020EE02F0EE51D926EF51DA22E6C05A
:10126200DEFFE7C0DDFF20EE01F0EE51D926EF519F
:10127200DA22E8C0DFFFEEC0D9FFEFC0DAFF400E8E
:10128200DF16EEC0D9FFEFC0DAFF000EDB86EEC03C
:10129200D9FFEFC0DAFF000EDB8EE551D8B418D0CB
:1012A200ED51020D090EF324D96E000EF420DA6E10
:1012B200DECFE9F0DDCFEAF0040EE919EB6FEA5177
:1012C200EC6FED51020D090EF324D96E000E17D00A
:1012D200ED51020D6A0EF324D96E000EF420DA6E7F
:1012E200DECFE9F0DDCFEAF0040EE919EB6FEA5147
:1012F200EC6FED51020D6A0EF324D96E000EF4204C
:10130200DA6EEBC0DEFFECC0DDFFEEC0E5F0EFC051
:10131200E6F01200306E2850D8B407D03050020DDB
:10132200090EF324D96E000E06D03050020D6A0E5B
:10133200F324D96E000EF420DA6EDECF31F0DDCF69
:1013420032F031503210D8A405D0000E286E000EB3
:10135200296E120020EE02F03150D9263250DA22E4
:1013620029C0DEFF2AC0DDFF20EE01F03150D92670
:101372003250DA222BC0DFFF31C0D9FF32C0DAFF90
:10138200400EDF1631C0D9FF32C0DAFF000EDB8615
:1013920031C0D9FF32C0DAFF000EDB8E2850D8B43C
:1013A20018D03050020D090EF324D96E000EF4202D
:1013B200DA6EDECF2CF0DDCF2DF0040E2C182E6E5F
:1013C2002D502F6E3050020D090EF324D96E000EEF
:1013D20017D03050020D6A0EF324D96E000EF4209D
:1013E200DA6EDECF2CF0DDCF2DF0040E2C182E6E2F
:1013F2002D502F6E3050020D6A0EF324D96E000E5E
:10140200F420DA6E2EC0DEFF2FC0DDFF31C028F0DF
:1014120032C029F01200609812BE3AD004AE0DD04C
:10142200020E206E00018B51D8B48EEC0DF0000E2E
:1014320000018D6F000E8E6F120020EE01F015502C
:10144200D9261650DA22080EDF6E20EE02F0155071
:10145200D9261650DA22300EDE6E040EDD6E15C06D
:10146200D9FF16C0DAFF0C0EDF6E15C0D9FF16C009
:10147200DAFF000EDB8E09C0D9FF0AC0DAFF040EC4
:10148200DF6E09C0D9FF0AC0DAFF000EDB8E120040
:10149200040130AF12D0010E206E00018C51D8B47D
:1014A2008EEC0DF0000E00018D6F000E8E6F1B5042
:1014B200D8A412002EEC0CF01200020E206E20EEC8
:1014C20001F01550D9261650DA22080EDF6E20EEF2
:1014D20002F01550D9261650DA22300EDE6E040EB6
:1014E200DD6E15C0D9FF16C0DAFF040EDF6E15C01F
:1014F200D9FF16C0DAFF000EDB8E000E00018D6FE1
:10150200000E8E6F1B50D8A412002EEC0CF01200AD
:10151200128E6B0E286E0F0E296E000E2B6E000EB1
:101522002A6E000E2D6E020E2C6ED1EC10F0000E03
:10153200286E040E296E000E2B6E000E2A6E000E0F
:101542002D6E300E2C6ED1EC10F0608C000E3C6EC5
:10155200020E3C6401D016D03C50010D7B0EF324E8
:10156200D96E000EF420DA6E000EDF6E3C50010DD3
:10157200780EF324D96E000EF420DA6E000EDF6EC0
:101582003C2AE6D7E30E286E000E296E000E2B6E63
:10159200000E2A6E000E2D6E020E2C6ED1EC10F093
:1015A200609C080E096E040E0A6E000E176E040E81
:1015B200186E17C015F018C016F032C427F0275065
:1015C200D8A403D0100E226E1200000E356E010E4A
:1015D200346E270E366E000E376E000E396E010E17
:1015E200386EA0EC0FF0200E226E1200040130398A
:1015F200E832030B0009D8A4120042D0128E080E62
:10160200226E12006AEC07F0120089EC0AF0120056
:10161200270E0F6E000E106E1280010E136E128EC8
:10162200120040EC0DF0120059EC04F0120004011B
:101632003451010DE30EF3240F6E000EF420106EF0
:101642001280010E136E128E1200128E3451010D91
:10165200E30EF324D96E000EF420DA6E32C4DFFFFB
:101662001200000E356E020E346E000E366E000E43
:10167200376E000E396E000E386EA0EC0FF01200BD
:1016820004013151000AD8B4CCD7010AD8B4CCD75E
:10169200020AD8B4C9D7060AD8B4B0D7030AD8B454
:1016A200B1D7010AD8B4DDD70F0AD8B4B1D7010A2D
:1016B200D8B4ABD7030AD8B4BAD7010AD8B4C5D7BD
:1016C200070A1200080E286E145010E1080E135C6F
:1016D200D8B00CD013C028F02150D8A402D0010EEB
:1016E20004D02104D8A402D0020E216E2850135E29
:1016F200000E145A20EE01F00950D9260A50DA22BF
:1017020028C0DFFF380E0001846F040E856F12A01F
:101712001CD03AD00FC0F6FF10C0F7FFF86A84C0A1
:10172200D9FF85C0DAFF070EF76403D00800F55031
:1017320005D0F6CFE1FFF7CFE2FFE750DF6E0F4AA9
:10174200102A0001844B852B28062850D8B4120099
:10175200E1D70FC0F6FF10C0F7FFF86A84C0D9FFC7
:1017620085C0DAFF070EF76403D00800F55005D0F4
:10177200F6CFE1FFF7CFE2FFE750DF6E0F4A102A04
:101782000001844B852B28062850D8B41200E1D7DB
:101792001F0E2264120060B21200F7EC07F0245010
:1017A200D8A41200000E0001F06F010EF16F400E7E
:1017B200F26F25EC0EF00001F46FF451F66FF76B47
:1017C200F7BF3BD0F75131E1F605D8B02ED035D076
:1017D200010E0001906FFF0EF625F86FFF0EF72144
:1017E200F96FF9BF2AD0010EF825F46F000EF92126
:1017F200F56F000EF425D96E010EF521DA6E940E06
:10180200F825E16E000EF921E26EDFCFE7FFF8075F
:10181200D8A0F907E6D7940E0001E56F000EE66F37
:10182200400EE76FFBEC10F008D001010051010AF5
:10183200D8B4CED7030AD8B4EED70001D351D8B466
:101842001200940EE56F000EE66F400EE76FFBECA0
:1018520010F0000E0001D36F120000018E51D8A4C7
:101862001200010E8E6F8D51D8A41200010E8D6FE1
:10187200020E2018D8A415D020EE01F00950D92666
:101882000A50DA22000EDF6E09C0D9FF0AC0DAFF61
:10189200480EDF6E09C0D9FF0AC0DAFF000EDB8EE8
:1018A20012002004D8A41200000E8F6F20EE01F067
:1018B2001750D9261850DA22080EDF6E20EE02F0F9
:1018C2001750D9261850DA22300EDE6E040EDD6E65
:1018D20017C0D9FF18C0DAFF040EDF6E17C0D9FF98
:1018E20018C0DAFF000EDB8E010E8F6F20EE01F0C2
:1018F2001550D9261650DA22080EDF6E20EE02F0BD
:101902001550D9261650DA22300EDE6E040EDD6E28
:1019120015C0D9FF16C0DAFF800EDF6E120009C0B3
:10192200D9FF0AC0DAFF000EDFBC010E296E040ED9
:101932000918096E0A500A6E080E2218D8A40BD094
:10194200040132517F0B636E6350D8B402D0100E83
:1019520001D0040E226E2004D8A43AD020EE02F068
:101962000950D9260A50DA22380EDE6E040EDD6ED8
:1019720063EC0BF0020E2118D8A40DD009C0D9FFD8
:101982000AC0DAFF040EDF6E09C0D9FF0AC0DAFF0F
:10199200000EDB8E12002950D8A40DD009C0D9FF49
:1019A2000AC0DAFF480EDF6E09C0D9FF0AC0DAFFAB
:1019B200000EDB8E120009C0D9FF0AC0DAFF080E42
:1019C200DF6E09C0D9FF0AC0DAFF000EDB8E1200FB
:1019D20004BE049E000E206E1200040130511F0B43
:1019E200E806D8A412003039E832030BE806D8A47E
:1019F20012003451D8B432D03405D8A412002ED0FB
:101A0200D40E0F6E000E106E000E146E080E136EC2
:101A12001280128E1200D40E0F6E000E106E128EF5
:101A2200120036C405F037C406F0DC0E016E000E5B
:101A3200026E000E076E000E086E048E1200DC0E9F
:101A42000F6E000E106E000E146E070E136EC10E96
:101A5200126E120032C492F0128E12003151000A3C
:101A6200D8B4CED7010AD8B4D6D7210AD8B4D9D798
:101A7200010AD8B4E4D7030AD8A41200EBD7000EA7
:101A82000401386F000E396F33D0128E1F04D8A4B0
:101A92003AD0388338D0128E36D0128E34BF0AD064
:101AA20034510F0B286E2850020D6A0EF324D96EA2
:101AB200000E09D034510F0B286E2850020D090E6A
:101AC200F324D96E000EF420DA6EDECF29F0DDCFDA
:101AD2002AF029C0D9FF2AC0DAFFDFAE14D029C00C
:101AE200D9FF2AC0DAFFDFA40ED0010E386F0BD067
:101AF20030511F0B000AD8B4C8D7010AD8B4CBD7CB
:101B0200030AD8B4CAD712AE1200380E0F6E040EF2
:101B1200106E1280020E136E1200000E00018C6F06
:101B2200000E8B6F020E2018D8A41FD020EE01F0F9
:101B32001550D9261650DA22080EDF6E20EE02F07A
:101B42001550D9261650DA22380EDE6E040EDD6EDE
:101B520015C0D9FF16C0DAFF480EDF6E15C0D9FFD7
:101B620016C0DAFF000EDB8E120013500401365D40
:101B720014503759D8B004D036C413F037C414F017
:101B820063EC0BF020EE02F00950D9260A50DA225B
:101B9200380EDE6E040EDD6E09C0D9FF0AC0DAFF10
:101BA200480EDF6E09C0D9FF0AC0DAFF000EDB8ED5
:101BB20012002D0E1C6E26C042F0FD0E4216D8A455
:101BC2003BD026C042F0D89042323F0E42164250DD
:101BD200040D000EF324176E040EF420186E17C0C5
:101BE20015F018C016F0040E1518156E1650166E64
:101BF20017C0D9FF18C0DAFFDF30E8320F0B0D0A29
:101C0200D8A417D0300E286E040E296E20EE02F0F2
:101C12001750D9261850DA22DECF2AF0DDCF2BF06A
:101C2200000E2D6E080E2C6EF0EC0FF0B9EC0EF0DB
:101C3200120071EC0FF012002650FD0B040AD8A41A
:101C4200120090EC0CF01200000E256E19501A10C2
:101C5200D8B406D019C0D9FF1AC0DAFFDFBE3CD013
:101C620020EE01F01950D9261A50DA220001F25161
:101C7200DE5CD8B008D020EE01F01950D9261A50F7
:101C8200DA22DF50F26F000E256E13D02550010DBF
:101C9200400EF324D96E050EF420DA6E2550010DA4
:101CA200F350F025E16EF450F121E26EDFCFE7FF51
:101CB200252AF251255CD8A0E9D7000EE56F400E27
:101CC200E66F050EE76F400EE86F020E08EC09F0B2
:101CD200E5C019F0E6C01AF0255012002D6E000E74
:101CE2002E6E040E2F6E2850296E2A6AD89029363D
:101CF2002A362D502B6E2C6AD8902B362C36D89043
:101D02002B362C3629502B262A502C22D8902B36B3
:101D12002C36D8902B362C362B502E262C502F2298
:101D22002EC0D9FF2FC0DAFFDF9E2850D8A407D0DB
:101D32002D50020D6A0EF324D96E000E06D02D50DE
:101D4200020D090EF324D96E000EF420DA6E2EC0B5
:101D5200DEFF2FC0DDFF2EC0D9FF2FC0DAFFDF9CD0
:101D620020EE04F02E50D9262F50DA22DF8C1200FA
:101D7200000E216E000E1B6E000E00018C6F000E15
:101D82008B6F000E8F6F000E206E09C0D9FF0AC044
:101D9200DAFF7F0EDF16040E0918096E0A500A6E6A
:101DA20009C0D9FF0AC0DAFF7F0EDF16040E091838
:101DB200096E0A500A6E15C0D9FF16C0DAFF7F0EEF
:101DC200DF16000E126E000E146E000E136E000E61
:101DD200046E000E066E000E056EF7EC0AF0000EA1
:101DE200356E030E346E000E366E000E376E000E28
:101DF200396E000E386EA0EC0FF00CEC0AF01200F7
:101E0200286E30D0010E0001886F12004EC089F09A
:101E120017D08951010D940EF324D96E000EF420CF
:101E2200DA6E4EC0DFFF892B000E896F09D00001E8
:101E32008851000AD8B4EDD7010AD8B4E7D7E9D758
:101E4200000E886F120000018951010D940EF324D7
:101E5200D96E000EF420DA6EDF50C96E892B000EA7
:101E6200896F12002850000AD8B4CCD7010AD8B41E
:101E7200EAD7030AD8B4DBD7010A1200000E000128
:101E8200DC6F4B0EDD6F000EDE6F000EDF6F000E9B
:101E9200E06F000EE16F080EE26F000E256E1A0E63
:101EA200306E010E52EC10F01E0E306E020E52EC2D
:101EB20010F0000E286E400E296E050E2A6E400E9E
:101EC2002B6E020E8BEC09F028C019F029C01AF013
:101ED200000E0001866F000E876F000E246E120046
:101EE200020E2018D8A403D082EC08F01200000ED3
:101EF200206E00018F51D8A41FD020EE01F01550A2
:101F0200D9261650DA22080EDF6E20EE02F01550A6
:101F1200D9261650DA22300EDE6E040EDD6E15C0A2
:101F2200D9FF16C0DAFF0C0EDF6E15C0D9FF16C03E
:101F3200DAFF000EDB8E1200000E8F6F120006D049
:101F42003FEC0FF01200EEEC0CF0120034C03AF04D
:101F520035C03BF03B50000AD8B404D07F0AD8A465
:101F6200120018D03A50010AD8B4EAD7030AD8B4FA
:101F72001200010AD8B4E7D7060AD8B41200770AC9
:101F8200D8B41200010AD8B41200070AD8B4120059
:101F9200010A12003A50FF0A1200980EF66E220E43
:101FA200F76E000EF86E0900F5CF4EF001EE00F06C
:101FB200400EEE6AE806FDE100EE60F0850EEE6A84
:101FC200E806FDE100EE01F0270EEE6AE806FDE10B
:101FD2004F904F92000EF86E000143EF11F02AC0AD
:101FE20030F02BC031F028C02EF029C02FF010D0D5
:101FF20030C0D9FF31C0DAFFDF50326E304A312AA9
:102002002EC0D9FF2FC0DAFF32C0DFFF2E4A2F2A9F
:102012002C06D8A02D062C28EBE12D28D8B41200CE
:10202200E7D76AA01DD017C0D9FF18C0DAFF800E0B
:10203200DE18D8A414D009C0D9FF0AC0DAFF840E72
:10204200DE18D8A40CD017C0D9FF18C0DAFF0C0EC6
:10205200DF6E17C0D9FF18C0DAFF000EDB8E6A9060
:10206200659A1200550E296E9E96C9CF29F0C7A413
:102072000BD0C7BAC5AC04D0030E01EC0FF00FD0E1
:10208200010E01EC0FF00BD0C7BA04D0000E01EC28
:102092000FF005D029C04EF0020E01EC0FF0C688F9
:1020A2001200336E30A405D0000E286E33506FEC50
:1020B2000EF030A205D0010E286E33506FEC0EF0F8
:1020C2003350010D6A0EF324316E0F0EF420326E7E
:1020D20031C0D9FF32C0DAFF30C0DFFF1200000E7C
:1020E2001E6E000E356E740E346E000E366E000ECD
:1020F200376E000E396E000E386EA0EC0FF0609253
:10210200649401D0659465B4FDD7000E00018A6F16
:102112001200E5C0EBF0E6C0ECF009D0EBC0D9FF4D
:10212200ECC0DAFFE7C0DFFF0001EB4BEC2B000154
:10213200E907D8A0EA07E929F1E1EA29D8B41200AF
:10214200EDD72250D8A41200000E606E000E646E0D
:10215200160E626E9F0E666E7B0E646ED08EA58426
:10216200A384F28E01D0608660A6FDD7010E226E96
:102172001200648465986082010E1E6E000E0001DA
:102182008A6F000E356E750E346E000E366E000EBE
:10219200376E000E396E000E386EA0EC0FF0120092
:1021A20028C02EF029C02FF008D02EC0D9FF2FC092
:1021B200DAFF2AC0DFFF2E4A2F2A2C06D8A02D06CE
:1021C2002C28F3E12D28D8B41200EFD7000E896E27
:1021D200000E8A6E000E8B6E92689368C70E946E24
:1021E200C40E0F015D6F3C0E5C6F2F0E5B6F856836
:1021F200F19E1200A3942450D8A40BD0E5C081F024
:10220200E6C082F0E7C023F0010E0001936F010ED9
:10221200246EA3841200010E00017027000E7123A8
:10222200722373231E50D8A412008A2B8A51D8A479
:1022320012008A691200000EC76E260EC66E000ECC
:10224200C56E000ECB6EFE0ECA6E160EC86E9E9640
:102252009D8612004AEC11F0E7EC10F038EC11F018
:102262001CEC11F095EC05F0A2EC10F01200100E2F
:10227200D36E000ED26E000E9B6E000EB56ED2BEF5
:102282001200FDD72BEC11F0F28EF28CC9EC0BF0A0
:07229200FDD7D09E1200559C
:020000040020DA
:08000000FFFFFFFFFFFFFFFF00
:020000040030CA
:0E00000023225F3CFFD385FF0FC00FE00F40AF
:00000001FF
